:100000000C942A000C943F000C943F000C943F0089
:100010000C943F000C943F000C943F000C943F0064
:100020000C943F000C943F000C943F000C943F0054
:100030000C943F000C943F000C943F000C943F0044
:100040000C943F000C943F000C943F000C943F0034
:100050000C943F0011241FBECFE5D8E0DEBFCDBF1A
:1000600010E0A0E6B0E0EEEBF1E002C005900D92EA
:10007000AA36B107D9F70E9441000C94DD000C9418
:100080000000DF93CF93CDB7DEB760970FB6F8943B
:10009000DEBF0FBECDBFA1E3B0E0E1E3F0E08081C1
:1000A000837F8C93A2E3B0E0E2E3F0E080818C6098
:1000B0008C93A4E3B0E0E4E3F0E0808180648C936F
:1000C000A5E3B0E0E5E3F0E0808180648C93AAE3EF
:1000D000B0E0EAE3F0E080818E6F8C93EBE3F0E038
:1000E0008EE780831982CE0102969D878C87E0E699
:1000F000F0E0FF87EE87FAE0F88BEE85FF85008061
:100100008E859F8501969F878E87EC85FD85008271
:100110008C859D8501969D878C8798899150988BB9
:10012000E889EE2351F7E0E3F0E08081882F90E04A
:10013000847090700097E1F48981893078F4898126
:100140008F5F8983ABE3B0E08981282F30E0CE0157
:100150000296FC01E20FF31F80818C93E0E3F0E054
:100160008081882F90E0847090700097B9F3DBCF86
:10017000E0E3F0E08081882F90E088709070009735
:1001800091F68981882379F0898181508983ABE355
:10019000B0E08981282F30E0CE010296FC01E20F09
:1001A000F31F80818C93E0E3F0E08081882F90E062
:0E01B000887090700097B9F3B6CFF894FFCF27
:0A01BE007E0CB69ECCDAF80EFECEE1
:00000001FF
