:100000000C942A000C9459000C9434000C94340085
:100010000C9434000C9434000C9434000C94340090
:100020000C9434000C9434000C9434000C94340080
:100030000C9434000C9434000C9434000C94340070
:100040000C9434000C9434000C9434000C94340060
:100050000C94340011241FBECFE5D8E0DEBFCDBF25
:100060000E947D000C9492000C940000DF93CF93CB
:10007000CDB7DEB7A1E3B0E0E1E3F0E080818B7FB4
:100080008C93AFE5B0E0EFE5F0E0808180688C9381
:10009000A5E5B0E0E5E5F0E0808183608C93ABE519
:1000A000B0E0EBE5F0E0808180648C93CF91DF914C
:1000B00008951F920F920FB60F9211248F939F9362
:1000C000AF93BF93EF93FF93DF93CF93CDB7DEB79B
:1000D000A5E3B0E0E5E3F0E0908181E089278C932F
:1000E000CF91DF91FF91EF91BF91AF919F918F9150
:1000F0000F900FBE0F901F901895DF93CF93CDB741
:10010000DEB7A4E3B0E0E4E3F0E0808181608C93AB
:10011000A5E3B0E0E5E3F0E080818E7F8C930E9460
:080120003600FFCFF894FFCF79
:00000001FF
