:100000000C942A000C9434000C9434000C943400AA
:100010000C9434000C9434000C9434000C94340090
:100020000C9434000C9434000C9434000C94340080
:100030000C9434000C9434000C9434000C94340070
:100040000C9434000C9434000C9434000C94340060
:100050000C94340011241FBECFE5D8E0DEBFCDBF25
:100060000E9436000C9478000C940000DF93CF932C
:10007000CDB7DEB7A1E3B0E0E1E3F0E080818B7FB4
:100080008C93A2E3B0E0E2E3F0E0808184608C93A3
:10009000A4E3B0E0E4E3F0E0808182608C93A5E328
:1000A000B0E0E5E3F0E080818D7F8C93E0E3F0E069
:1000B0008081882F90E084709070009741F4A5E3D0
:1000C000B0E0E5E3F0E0808182608C93EFCFE0E385
:1000D000F0E08081882F90E084709070009731F379
:1000E000A5E3B0E0E5E3F0E080818D7F8C93DECF87
:0400F000F894FFCFB2
:00000001FF
