:100000000C942A000C9434000C9434000C943400AA
:100010000C9434000C9434000C9434000C94340090
:100020000C9434000C9434000C9434000C94340080
:100030000C9434000C9434000C9434000C94340070
:100040000C9434000C9434000C9434000C94340060
:100050000C94340011241FBECFE5D8E0DEBFCDBF25
:100060000E9436000C9497000C940000DF93CF930D
:10007000CDB7DEB7AAE3B0E0EAE3F0E08081887FA5
:100080008C93A4E3B0E0E4E3F0E0808183608C93A0
:10009000A5E3B0E0E5E3F0E080818C7F8C93E9E3B9
:1000A000F0E08081882F90E081709070882379F053
:1000B000A5E3B0E0E5E3F0E080818E7F8C93A5E3DB
:1000C000B0E0E5E3F0E0808182608C93E8CFE9E383
:1000D000F0E08081882F90E082709070009779F036
:1000E000A5E3B0E0E5E3F0E080818D7F8C93A5E3AC
:1000F000B0E0E5E3F0E0808181608C93D0CFE9E36C
:10010000F0E08081882F90E084709070009739F241
:10011000A5E3B0E0E5E3F0E080818E7F8C93A5E37A
:10012000B0E0E5E3F0E080818D7F8C93B8CFF89468
:02013000FFCFFF
:00000001FF
