:100000000C942A000C9434000C9434000C943400AA
:100010000C9434000C9434000C9434000C94340090
:100020000C9434000C9434000C9434000C94340080
:100030000C9434000C9434000C9434000C94340070
:100040000C9434000C9434000C9434000C94340060
:100050000C94340011241FBECFE5D8E0DEBFCDBF25
:100060000E9436000C946F000C940000DF93CF9335
:10007000CDB7DEB7A1E3B0E0E1E3F0E08081877FB8
:100080008C93A2E3B0E0E2E3F0E0808188608C939F
:10009000A4E3B0E0E4E3F0E0808180628C93A5E328
:1000A000B0E0E5E3F0E080818F7D8C93E0E3F0E069
:1000B0008081882F90E088709070009741F4A5E3CC
:1000C000B0E0E5E3F0E0808180628C93EFCFA5E3C0
:1000D000B0E0E5E3F0E080818F7D8C93E7CFF8948A
:0200E000FFCF50
:00000001FF
