:100000000C942A000C9434000C9434000C943400AA
:100010000C9434000C9434000C9434000C94340090
:100020000C9434000C9434000C9434000C94340080
:100030000C9434000C9434000C9434000C94340070
:100040000C9434000C9434000C9434000C94340060
:100050000C94340011241FBECFE5D8E0DEBFCDBF25
:100060000E9447000C9450000C940000DF93CF9343
:10007000CDB7DEB7E2E5F0E01082A3E5B0E0E3E55E
:10008000F0E080818A6A8C93CF91DF910895DF93AD
:10009000CF93CDB7DEB780E090E0CF91DF910895A8
:0400A000F894FFCF02
:00000001FF
