:100000000C942A000C9434000C9434000C943400AA
:100010000C9434000C9434000C9434000C94340090
:100020000C9434000C9434000C9434000C94340080
:100030000C9434000C9434000C9434000C94340070
:100040000C9434000C9434000C9434000C94340060
:100050000C94340011241FBECFE5D8E0DEBFCDBF25
:100060000E9439020C9448020C940000DF93CF9355
:1000700000D000D00F92CDB7DEB789836A834B835F
:100080008981282F30E03D832C838C819D818234AF
:10009000910509F448C02C813D812334310534F4A5
:1000A0008C819D818134910571F0CBC02C813D8183
:1000B0002334310509F467C08C819D818434910516
:1000C00009F491C0BEC08B818823A9F4AAE3B0E0F3
:1000D000EAE3F0E08081482F8A81282F30E081E038
:1000E00090E0022E02C0880F991F0A94E2F78095D3
:1000F00084238C93A6C08B81813009F0A2C0AAE32F
:10010000B0E0EAE3F0E08081482F8A81282F30E0D8
:1001100081E090E0022E02C0880F991F0A94E2F756
:10012000842B8C938EC08B818823A9F4A7E3B0E045
:10013000E7E3F0E08081482F8A81282F30E081E0DA
:1001400090E0022E02C0880F991F0A94E2F7809572
:1001500084238C9376C08B81813009F072C0A7E331
:10016000B0E0E7E3F0E08081482F8A81282F30E07B
:1001700081E090E0022E02C0880F991F0A94E2F7F6
:10018000842B8C935EC08B818823A9F4A4E3B0E018
:10019000E4E3F0E08081482F8A81282F30E081E07D
:1001A00090E0022E02C0880F991F0A94E2F7809512
:1001B00084238C9346C08B81813009F042C0A4E334
:1001C000B0E0E4E3F0E08081482F8A81282F30E01E
:1001D00081E090E0022E02C0880F991F0A94E2F796
:1001E000842B8C932EC08B818823A9F4A1E3B0E0EB
:1001F000E1E3F0E08081482F8A81282F30E081E020
:1002000090E0022E02C0880F991F0A94E2F78095B1
:1002100084238C9316C08B81813099F4A1E3B0E0E4
:10022000E1E3F0E08081482F8A81282F30E081E0EF
:1002300090E0022E02C0880F991F0A94E2F7842BE7
:100240008C930F900F900F900F900F90CF91DF91A4
:100250000895DF93CF9300D000D00F92CDB7DEB7D3
:1002600089836A834B838981282F30E03D832C83E7
:100270008C819D818234910509F448C02C813D8197
:100280002334310534F48C819D818134910571F0E2
:10029000CBC02C813D812334310509F467C08C81AA
:1002A0009D818434910509F491C0BEC08B8188235F
:1002B000A9F4ABE3B0E0EBE3F0E08081482F8A8162
:1002C000282F30E081E090E0022E02C0880F991FB5
:1002D0000A94E2F7809584238C93A6C08B818F3F8C
:1002E00009F0A2C0ABE3B0E0EBE3F0E08081482F7F
:1002F0008A81282F30E081E090E0022E02C0880F32
:10030000991F0A94E2F7842B8C938EC08B818823EB
:10031000A9F4A8E3B0E0E8E3F0E08081482F8A8107
:10032000282F30E081E090E0022E02C0880F991F54
:100330000A94E2F7809584238C9376C08B818F3F5B
:1003400009F072C0A8E3B0E0E8E3F0E08081482F54
:100350008A81282F30E081E090E0022E02C0880FD1
:10036000991F0A94E2F7842B8C935EC08B818823BB
:10037000A9F4A5E3B0E0E5E3F0E08081482F8A81AD
:10038000282F30E081E090E0022E02C0880F991FF4
:100390000A94E2F7809584238C9346C08B818F3F2B
:1003A00009F042C0A5E3B0E0E5E3F0E08081482F2A
:1003B0008A81282F30E081E090E0022E02C0880F71
:1003C000991F0A94E2F7842B8C932EC08B8188238B
:1003D000A9F4A2E3B0E0E2E3F0E08081482F8A8153
:1003E000282F30E081E090E0022E02C0880F991F94
:1003F0000A94E2F7809584238C9316C08B818F3FFB
:1004000099F4A2E3B0E0E2E3F0E08081482F8A8132
:10041000282F30E081E090E0022E02C0880F991F63
:100420000A94E2F7842B8C930F900F900F900F900B
:100430000F90CF91DF910895DF93CF9300D000D03C
:10044000CDB7DEB789836A835C834B830F900F90AF
:100450000F900F90CF91DF910895DF93CF9300D04D
:10046000CDB7DEB789836A830F900F90CF91DF916C
:100470000895DF93CF93CDB7DEB781E464E041E028
:100480000E94360081E464E04FEF0E942901FFCF13
:04049000F894FFCF0E
:00000001FF
