:100000000C942A000C9434000C9434000C943400AA
:100010000C9434000C9434000C9434000C94340090
:100020000C9434000C9434000C9434000C94340080
:100030000C9434000C9434000C9434000C94340070
:100040000C9434000C9434000C9434000C94340060
:100050000C94340011241FBECFE5D8E0DEBFCDBF25
:100060000E9436000C9480000C940000DF93CF9324
:1000700000D0CDB7DEB7A1E3B0E0E1E3F0E08081EE
:100080008F7E8C93A4E3B0E0E4E3F0E080818F60A6
:100090008C93A5E3B0E0E5E3F0E08081807F8C9372
:1000A0001A821982E0E3F0E08081882F90E080716D
:1000B0009070009719F1E0E3F0E08081882F90E0E4
:1000C00080719070009771F38A81882359F781E0DD
:1000D0008A8389818F5F898389818A3030F4E5E35F
:1000E000F0E080818F5F8083DDCFA5E3B0E0E5E3C2
:1000F000F0E08081807F8C931982D4CF1A82D2CF96
:04010000F894FFCFA1
:00000001FF
