:100000000C942A000C9434000C9434000C943400AA
:100010000C9434000C9434000C9434000C94340090
:100020000C9434000C9434000C9434000C94340080
:100030000C9434000C9434000C9434000C94340070
:100040000C9434000C9434000C9434000C94340060
:100050000C94340011241FBECFE5D8E0DEBFCDBF25
:100060000E9436000C94C9000C940000DF93CF93DB
:10007000CDB7DEB7A7E3B0E0E7E3F0E080818C7FA7
:100080008C93A4E3B0E0E4E3F0E0808183608C93A0
:10009000A5E3B0E0E5E3F0E0808183608C93E6E3E4
:1000A000F0E08081882F90E081709070882341F08B
:1000B000A5E3B0E0E5E3F0E080818E7F8C9310C093
:1000C000E6E3F0E08081882F90E0817090700097E7
:1000D00039F4A5E3B0E0E5E3F0E0808181608C9342
:1000E000E6E3F0E08081882F90E0827090700097C6
:1000F00041F0A5E3B0E0E5E3F0E080818D7F8C93F3
:1001000010C0E6E3F0E08081882F90E0827090706C
:10011000009739F4A5E3B0E0E5E3F0E08081826088
:100120008C93E6E3F0E08081882F90E081709070FE
:10013000982F81E08927882389F4E6E3F0E0808125
:10014000882F90E082709070009741F0A5E3B0E0B6
:10015000E5E3F0E080818C7F8C93A1CFE6E3F0E0D3
:100160008081882F90E081709070009751F0E6E3D5
:10017000F0E08081882F90E082709070009709F005
:100180008ECFA5E3B0E0E5E3F0E0808183608C935F
:0601900086CFF894FFCFBA
:00000001FF
