:100000000C942A000C9434000C9434000C943400AA
:100010000C9434000C9434000C9434000C94340090
:100020000C9434000C9434000C9434000C94340080
:100030000C9434000C9434000C9434000C94340070
:100040000C9434000C9434000C9434000C94340060
:100050000C94340011241FBECFE5D8E0DEBFCDBF25
:100060000E944F000C9456000C940000DF93CF9335
:10007000CDB7DEB7E2E5F0E01082ECE5F0E080E835
:100080008083A7E3B0E0E7E3F0E0808188608C93B1
:10009000E3E5F0E08AE68083CF91DF910895DF9376
:1000A000CF93CDB7DEB70E943600FFCFF894FFCFD5
:00000001FF
